{
  "_format": "hh3-artifact-1",
  "contractName": "RoleManager",
  "sourceName": "contracts/RoleManager.sol",
  "abi": [
    {
      "inputs": [],
      "stateMutability": "nonpayable",
      "type": "constructor"
    },
    {
      "inputs": [],
      "name": "AccessControlBadConfirmation",
      "type": "error"
    },
    {
      "inputs": [
        {
          "internalType": "address",
          "name": "account",
          "type": "address"
        },
        {
          "internalType": "bytes32",
          "name": "neededRole",
          "type": "bytes32"
        }
      ],
      "name": "AccessControlUnauthorizedAccount",
      "type": "error"
    },
    {
      "anonymous": false,
      "inputs": [
        {
          "indexed": true,
          "internalType": "address",
          "name": "account",
          "type": "address"
        },
        {
          "indexed": false,
          "internalType": "bytes32",
          "name": "role",
          "type": "bytes32"
        },
        {
          "indexed": false,
          "internalType": "uint256",
          "name": "timestamp",
          "type": "uint256"
        }
      ],
      "name": "AddParticipant",
      "type": "event"
    },
    {
      "anonymous": false,
      "inputs": [
        {
          "indexed": true,
          "internalType": "address",
          "name": "account",
          "type": "address"
        },
        {
          "indexed": false,
          "internalType": "bytes32",
          "name": "role",
          "type": "bytes32"
        },
        {
          "indexed": false,
          "internalType": "uint256",
          "name": "timestamp",
          "type": "uint256"
        }
      ],
      "name": "RemoveParticipant",
      "type": "event"
    },
    {
      "anonymous": false,
      "inputs": [
        {
          "indexed": true,
          "internalType": "bytes32",
          "name": "role",
          "type": "bytes32"
        },
        {
          "indexed": true,
          "internalType": "bytes32",
          "name": "previousAdminRole",
          "type": "bytes32"
        },
        {
          "indexed": true,
          "internalType": "bytes32",
          "name": "newAdminRole",
          "type": "bytes32"
        }
      ],
      "name": "RoleAdminChanged",
      "type": "event"
    },
    {
      "anonymous": false,
      "inputs": [
        {
          "indexed": true,
          "internalType": "bytes32",
          "name": "role",
          "type": "bytes32"
        },
        {
          "indexed": true,
          "internalType": "address",
          "name": "account",
          "type": "address"
        },
        {
          "indexed": true,
          "internalType": "address",
          "name": "sender",
          "type": "address"
        }
      ],
      "name": "RoleGranted",
      "type": "event"
    },
    {
      "anonymous": false,
      "inputs": [
        {
          "indexed": true,
          "internalType": "bytes32",
          "name": "role",
          "type": "bytes32"
        },
        {
          "indexed": true,
          "internalType": "address",
          "name": "account",
          "type": "address"
        },
        {
          "indexed": true,
          "internalType": "address",
          "name": "sender",
          "type": "address"
        }
      ],
      "name": "RoleRevoked",
      "type": "event"
    },
    {
      "inputs": [],
      "name": "DEFAULT_ADMIN_ROLE",
      "outputs": [
        {
          "internalType": "bytes32",
          "name": "",
          "type": "bytes32"
        }
      ],
      "stateMutability": "view",
      "type": "function"
    },
    {
      "inputs": [],
      "name": "DISTRIBUTOR_ROLE",
      "outputs": [
        {
          "internalType": "bytes32",
          "name": "",
          "type": "bytes32"
        }
      ],
      "stateMutability": "view",
      "type": "function"
    },
    {
      "inputs": [],
      "name": "MANUFACTURER_ROLE",
      "outputs": [
        {
          "internalType": "bytes32",
          "name": "",
          "type": "bytes32"
        }
      ],
      "stateMutability": "view",
      "type": "function"
    },
    {
      "inputs": [],
      "name": "RETAILER_ROLE",
      "outputs": [
        {
          "internalType": "bytes32",
          "name": "",
          "type": "bytes32"
        }
      ],
      "stateMutability": "view",
      "type": "function"
    },
    {
      "inputs": [
        {
          "internalType": "address",
          "name": "_account",
          "type": "address"
        },
        {
          "internalType": "bytes32",
          "name": "_role",
          "type": "bytes32"
        },
        {
          "internalType": "string",
          "name": "_name",
          "type": "string"
        },
        {
          "internalType": "uint256",
          "name": "_timestamp",
          "type": "uint256"
        }
      ],
      "name": "addParticipant",
      "outputs": [],
      "stateMutability": "nonpayable",
      "type": "function"
    },
    {
      "inputs": [
        {
          "internalType": "address",
          "name": "_account",
          "type": "address"
        }
      ],
      "name": "getParticipant",
      "outputs": [
        {
          "internalType": "string",
          "name": "name",
          "type": "string"
        },
        {
          "internalType": "string",
          "name": "roleStr",
          "type": "string"
        }
      ],
      "stateMutability": "view",
      "type": "function"
    },
    {
      "inputs": [
        {
          "internalType": "bytes32",
          "name": "role",
          "type": "bytes32"
        }
      ],
      "name": "getRoleAdmin",
      "outputs": [
        {
          "internalType": "bytes32",
          "name": "",
          "type": "bytes32"
        }
      ],
      "stateMutability": "view",
      "type": "function"
    },
    {
      "inputs": [
        {
          "internalType": "bytes32",
          "name": "role",
          "type": "bytes32"
        },
        {
          "internalType": "address",
          "name": "account",
          "type": "address"
        }
      ],
      "name": "grantRole",
      "outputs": [],
      "stateMutability": "nonpayable",
      "type": "function"
    },
    {
      "inputs": [
        {
          "internalType": "bytes32",
          "name": "role",
          "type": "bytes32"
        },
        {
          "internalType": "address",
          "name": "account",
          "type": "address"
        }
      ],
      "name": "hasRole",
      "outputs": [
        {
          "internalType": "bool",
          "name": "",
          "type": "bool"
        }
      ],
      "stateMutability": "view",
      "type": "function"
    },
    {
      "inputs": [
        {
          "internalType": "address",
          "name": "_account",
          "type": "address"
        }
      ],
      "name": "isDistributor",
      "outputs": [
        {
          "internalType": "bool",
          "name": "",
          "type": "bool"
        }
      ],
      "stateMutability": "view",
      "type": "function"
    },
    {
      "inputs": [
        {
          "internalType": "address",
          "name": "_account",
          "type": "address"
        }
      ],
      "name": "isManufacturer",
      "outputs": [
        {
          "internalType": "bool",
          "name": "",
          "type": "bool"
        }
      ],
      "stateMutability": "view",
      "type": "function"
    },
    {
      "inputs": [
        {
          "internalType": "address",
          "name": "_account",
          "type": "address"
        }
      ],
      "name": "isRetailer",
      "outputs": [
        {
          "internalType": "bool",
          "name": "",
          "type": "bool"
        }
      ],
      "stateMutability": "view",
      "type": "function"
    },
    {
      "inputs": [
        {
          "internalType": "address",
          "name": "",
          "type": "address"
        }
      ],
      "name": "participants",
      "outputs": [
        {
          "internalType": "string",
          "name": "name",
          "type": "string"
        },
        {
          "internalType": "bytes32",
          "name": "role",
          "type": "bytes32"
        }
      ],
      "stateMutability": "view",
      "type": "function"
    },
    {
      "inputs": [
        {
          "internalType": "address",
          "name": "_account",
          "type": "address"
        },
        {
          "internalType": "bytes32",
          "name": "_role",
          "type": "bytes32"
        },
        {
          "internalType": "uint256",
          "name": "_timestamp",
          "type": "uint256"
        }
      ],
      "name": "removeParticipant",
      "outputs": [],
      "stateMutability": "nonpayable",
      "type": "function"
    },
    {
      "inputs": [
        {
          "internalType": "bytes32",
          "name": "role",
          "type": "bytes32"
        },
        {
          "internalType": "address",
          "name": "callerConfirmation",
          "type": "address"
        }
      ],
      "name": "renounceRole",
      "outputs": [],
      "stateMutability": "nonpayable",
      "type": "function"
    },
    {
      "inputs": [
        {
          "internalType": "bytes32",
          "name": "role",
          "type": "bytes32"
        },
        {
          "internalType": "address",
          "name": "account",
          "type": "address"
        }
      ],
      "name": "revokeRole",
      "outputs": [],
      "stateMutability": "nonpayable",
      "type": "function"
    },
    {
      "inputs": [
        {
          "internalType": "bytes4",
          "name": "interfaceId",
          "type": "bytes4"
        }
      ],
      "name": "supportsInterface",
      "outputs": [
        {
          "internalType": "bool",
          "name": "",
          "type": "bool"
        }
      ],
      "stateMutability": "view",
      "type": "function"
    }
  ],
  "bytecode": "0x608060405234801561000f575f5ffd5b506100225f5f1b336100d260201b60201c565b5060405180604001604052806040518060400160405280600581526020017f41646d696e00000000000000000000000000000000000000000000000000000081525081526020015f5f1b81525060015f3373ffffffffffffffffffffffffffffffffffffffff1673ffffffffffffffffffffffffffffffffffffffff1681526020019081526020015f205f820151815f0190816100bf919061046e565b506020820151816001015590505061053d565b5f6100e383836101c760201b60201c565b6101bd5760015f5f8581526020019081526020015f205f015f8473ffffffffffffffffffffffffffffffffffffffff1673ffffffffffffffffffffffffffffffffffffffff1681526020019081526020015f205f6101000a81548160ff02191690831515021790555061015a61022a60201b60201c565b73ffffffffffffffffffffffffffffffffffffffff168273ffffffffffffffffffffffffffffffffffffffff16847f2f8788117e7eff1d82e926ec794901d17c78024a50270940304540a733656f0d60405160405180910390a4600190506101c1565b5f90505b92915050565b5f5f5f8481526020019081526020015f205f015f8373ffffffffffffffffffffffffffffffffffffffff1673ffffffffffffffffffffffffffffffffffffffff1681526020019081526020015f205f9054906101000a900460ff16905092915050565b5f33905090565b5f81519050919050565b7f4e487b71000000000000000000000000000000000000000000000000000000005f52604160045260245ffd5b7f4e487b71000000000000000000000000000000000000000000000000000000005f52602260045260245ffd5b5f60028204905060018216806102ac57607f821691505b6020821081036102bf576102be610268565b5b50919050565b5f819050815f5260205f209050919050565b5f6020601f8301049050919050565b5f82821b905092915050565b5f600883026103217fffffffffffffffffffffffffffffffffffffffffffffffffffffffffffffffff826102e6565b61032b86836102e6565b95508019841693508086168417925050509392505050565b5f819050919050565b5f819050919050565b5f61036f61036a61036584610343565b61034c565b610343565b9050919050565b5f819050919050565b61038883610355565b61039c61039482610376565b8484546102f2565b825550505050565b5f5f905090565b6103b36103a4565b6103be81848461037f565b505050565b5b818110156103e1576103d65f826103ab565b6001810190506103c4565b5050565b601f821115610426576103f7816102c5565b610400846102d7565b8101602085101561040f578190505b61042361041b856102d7565b8301826103c3565b50505b505050565b5f82821c905092915050565b5f6104465f198460080261042b565b1980831691505092915050565b5f61045e8383610437565b9150826002028217905092915050565b61047782610231565b67ffffffffffffffff8111156104905761048f61023b565b5b61049a8254610295565b6104a58282856103e5565b5f60209050601f8311600181146104d6575f84156104c4578287015190505b6104ce8582610453565b865550610535565b601f1984166104e4866102c5565b5f5b8281101561050b578489015182556001820191506020850194506020810190506104e6565b868310156105285784890151610524601f891682610437565b8355505b6001600288020188555050505b505050505050565b6119718061054a5f395ff3fe608060405234801561000f575f5ffd5b5060043610610109575f3560e01c806350db76a5116100a057806391d148541161006f57806391d14854146102ed578063965288b01461031d578063a217fddf1461033b578063d547741f14610359578063f0bd87cc1461037557610109565b806350db76a5146102405780635da09b881461025c5780637143059f1461028c5780638f0c86fa146102bd57610109565b8063248a9ca3116100dc578063248a9ca3146101bc5780632f2ff15d146101ec5780633510c0a21461020857806336568abe1461022457610109565b806301ffc9a71461010d57806309e69ede1461013d57806317d4a4911461016e5780632115e7bf1461019e575b5f5ffd5b61012760048036038101906101229190611054565b610393565b6040516101349190611099565b60405180910390f35b6101576004803603810190610152919061110c565b61040c565b6040516101659291906111bf565b60405180910390f35b6101886004803603810190610183919061110c565b6104b2565b6040516101959190611099565b60405180910390f35b6101a66104e4565b6040516101b391906111ed565b60405180910390f35b6101d660048036038101906101d19190611230565b610508565b6040516101e391906111ed565b60405180910390f35b6102066004803603810190610201919061125b565b610524565b005b610222600480360381019061021d91906112cc565b610546565b005b61023e6004803603810190610239919061125b565b610651565b005b61025a6004803603810190610255919061137d565b6106cc565b005b6102766004803603810190610271919061110c565b610915565b6040516102839190611099565b60405180910390f35b6102a660048036038101906102a1919061110c565b610947565b6040516102b4929190611401565b60405180910390f35b6102d760048036038101906102d2919061110c565b610bf3565b6040516102e49190611099565b60405180910390f35b6103076004803603810190610302919061125b565b610c25565b6040516103149190611099565b60405180910390f35b610325610c88565b60405161033291906111ed565b60405180910390f35b610343610cac565b60405161035091906111ed565b60405180910390f35b610373600480360381019061036e919061125b565b610cb2565b005b61037d610cd4565b60405161038a91906111ed565b60405180910390f35b5f7f7965db0b000000000000000000000000000000000000000000000000000000007bffffffffffffffffffffffffffffffffffffffffffffffffffffffff1916827bffffffffffffffffffffffffffffffffffffffffffffffffffffffff19161480610405575061040482610cf8565b5b9050919050565b6001602052805f5260405f205f91509050805f01805461042b90611463565b80601f016020809104026020016040519081016040528092919081815260200182805461045790611463565b80156104a25780601f10610479576101008083540402835291602001916104a2565b820191905f5260205f20905b81548152906001019060200180831161048557829003601f168201915b5050505050908060010154905082565b5f6104dd7feefb95e842a3287179d933b4460be539a1d5af11aa8b325bb45c5c8dc92de4ed83610c25565b9050919050565b7f2a5f906c256a5d799494fcd066e1f6c077689de1cdb65052a1624de4bace99bf81565b5f5f5f8381526020019081526020015f20600101549050919050565b61052d82610508565b61053681610d61565b6105408383610d75565b50505050565b5f5f1b61055281610d61565b61055c8385610c25565b61059b576040517f08c379a0000000000000000000000000000000000000000000000000000000008152600401610592906114dd565b60405180910390fd5b6105a58385610e5e565b5060015f8573ffffffffffffffffffffffffffffffffffffffff1673ffffffffffffffffffffffffffffffffffffffff1681526020019081526020015f205f5f82015f6105f29190610f9f565b600182015f905550508373ffffffffffffffffffffffffffffffffffffffff167fb8dad4d1bfe2a40ca36b2772126949a3d81917172beff009f033a602e06e1554848460405161064392919061150a565b60405180910390a250505050565b610659610f47565b73ffffffffffffffffffffffffffffffffffffffff168173ffffffffffffffffffffffffffffffffffffffff16146106bd576040517f6697b23200000000000000000000000000000000000000000000000000000000815260040160405180910390fd5b6106c78282610e5e565b505050565b5f5f1b6106d881610d61565b5f73ffffffffffffffffffffffffffffffffffffffff168673ffffffffffffffffffffffffffffffffffffffff1603610746576040517f08c379a000000000000000000000000000000000000000000000000000000000815260040161073d9061157b565b60405180910390fd5b7feefb95e842a3287179d933b4460be539a1d5af11aa8b325bb45c5c8dc92de4ed85148061079357507ffbd454f36a7e1a388bd6fc3ab10d434aa4578f811acbbcf33afb1c697486313c85145b806107bd57507f2a5f906c256a5d799494fcd066e1f6c077689de1cdb65052a1624de4bace99bf85145b6107fc576040517f08c379a00000000000000000000000000000000000000000000000000000000081526004016107f3906115e3565b60405180910390fd5b6108068587610d75565b50604051806040016040528085858080601f0160208091040260200160405190810160405280939291908181526020018383808284375f81840152601f19601f8201169050808301925050505050505081526020018681525060015f8873ffffffffffffffffffffffffffffffffffffffff1673ffffffffffffffffffffffffffffffffffffffff1681526020019081526020015f205f820151815f0190816108af91906117ce565b50602082015181600101559050508573ffffffffffffffffffffffffffffffffffffffff167f0b4161aeba0f9ce3ae6746c39559526eb91878fd1dcf2de2fbd5b616046e659f868460405161090592919061150a565b60405180910390a2505050505050565b5f6109407f2a5f906c256a5d799494fcd066e1f6c077689de1cdb65052a1624de4bace99bf83610c25565b9050919050565b6060805f60015f8573ffffffffffffffffffffffffffffffffffffffff1673ffffffffffffffffffffffffffffffffffffffff1681526020019081526020015f206040518060400160405290815f820180546109a290611463565b80601f01602080910402602001604051908101604052809291908181526020018280546109ce90611463565b8015610a195780601f106109f057610100808354040283529160200191610a19565b820191905f5260205f20905b8154815290600101906020018083116109fc57829003601f168201915b5050505050815260200160018201548152505090505f815f01515111610a74576040517f08c379a0000000000000000000000000000000000000000000000000000000008152600401610a6b906118e7565b60405180910390fd5b7feefb95e842a3287179d933b4460be539a1d5af11aa8b325bb45c5c8dc92de4ed816020015103610adc576040518060400160405280600c81526020017f4d616e75666163747572657200000000000000000000000000000000000000008152509150610be7565b7ffbd454f36a7e1a388bd6fc3ab10d434aa4578f811acbbcf33afb1c697486313c816020015103610b44576040518060400160405280600b81526020017f4469737472696275746f720000000000000000000000000000000000000000008152509150610be6565b7f2a5f906c256a5d799494fcd066e1f6c077689de1cdb65052a1624de4bace99bf816020015103610bac576040518060400160405280600881526020017f52657461696c65720000000000000000000000000000000000000000000000008152509150610be5565b6040518060400160405280600481526020017f4e6f6e650000000000000000000000000000000000000000000000000000000081525091505b5b5b805f0151925050915091565b5f610c1e7ffbd454f36a7e1a388bd6fc3ab10d434aa4578f811acbbcf33afb1c697486313c83610c25565b9050919050565b5f5f5f8481526020019081526020015f205f015f8373ffffffffffffffffffffffffffffffffffffffff1673ffffffffffffffffffffffffffffffffffffffff1681526020019081526020015f205f9054906101000a900460ff16905092915050565b7feefb95e842a3287179d933b4460be539a1d5af11aa8b325bb45c5c8dc92de4ed81565b5f5f1b81565b610cbb82610508565b610cc481610d61565b610cce8383610e5e565b50505050565b7ffbd454f36a7e1a388bd6fc3ab10d434aa4578f811acbbcf33afb1c697486313c81565b5f7f01ffc9a7000000000000000000000000000000000000000000000000000000007bffffffffffffffffffffffffffffffffffffffffffffffffffffffff1916827bffffffffffffffffffffffffffffffffffffffffffffffffffffffff1916149050919050565b610d7281610d6d610f47565b610f4e565b50565b5f610d808383610c25565b610e545760015f5f8581526020019081526020015f205f015f8473ffffffffffffffffffffffffffffffffffffffff1673ffffffffffffffffffffffffffffffffffffffff1681526020019081526020015f205f6101000a81548160ff021916908315150217905550610df1610f47565b73ffffffffffffffffffffffffffffffffffffffff168273ffffffffffffffffffffffffffffffffffffffff16847f2f8788117e7eff1d82e926ec794901d17c78024a50270940304540a733656f0d60405160405180910390a460019050610e58565b5f90505b92915050565b5f610e698383610c25565b15610f3d575f5f5f8581526020019081526020015f205f015f8473ffffffffffffffffffffffffffffffffffffffff1673ffffffffffffffffffffffffffffffffffffffff1681526020019081526020015f205f6101000a81548160ff021916908315150217905550610eda610f47565b73ffffffffffffffffffffffffffffffffffffffff168273ffffffffffffffffffffffffffffffffffffffff16847ff6391f5c32d9c69d2a47ea670b442974b53935d1edc7fd64eb21e047a839171b60405160405180910390a460019050610f41565b5f90505b92915050565b5f33905090565b610f588282610c25565b610f9b5780826040517fe2517d3f000000000000000000000000000000000000000000000000000000008152600401610f92929190611914565b60405180910390fd5b5050565b508054610fab90611463565b5f825580601f10610fbc5750610fd9565b601f0160209004905f5260205f2090810190610fd89190610fdc565b5b50565b5b80821115610ff3575f815f905550600101610fdd565b5090565b5f5ffd5b5f5ffd5b5f7fffffffff0000000000000000000000000000000000000000000000000000000082169050919050565b61103381610fff565b811461103d575f5ffd5b50565b5f8135905061104e8161102a565b92915050565b5f6020828403121561106957611068610ff7565b5b5f61107684828501611040565b91505092915050565b5f8115159050919050565b6110938161107f565b82525050565b5f6020820190506110ac5f83018461108a565b92915050565b5f73ffffffffffffffffffffffffffffffffffffffff82169050919050565b5f6110db826110b2565b9050919050565b6110eb816110d1565b81146110f5575f5ffd5b50565b5f81359050611106816110e2565b92915050565b5f6020828403121561112157611120610ff7565b5b5f61112e848285016110f8565b91505092915050565b5f81519050919050565b5f82825260208201905092915050565b8281835e5f83830152505050565b5f601f19601f8301169050919050565b5f61117982611137565b6111838185611141565b9350611193818560208601611151565b61119c8161115f565b840191505092915050565b5f819050919050565b6111b9816111a7565b82525050565b5f6040820190508181035f8301526111d7818561116f565b90506111e660208301846111b0565b9392505050565b5f6020820190506112005f8301846111b0565b92915050565b61120f816111a7565b8114611219575f5ffd5b50565b5f8135905061122a81611206565b92915050565b5f6020828403121561124557611244610ff7565b5b5f6112528482850161121c565b91505092915050565b5f5f6040838503121561127157611270610ff7565b5b5f61127e8582860161121c565b925050602061128f858286016110f8565b9150509250929050565b5f819050919050565b6112ab81611299565b81146112b5575f5ffd5b50565b5f813590506112c6816112a2565b92915050565b5f5f5f606084860312156112e3576112e2610ff7565b5b5f6112f0868287016110f8565b93505060206113018682870161121c565b9250506040611312868287016112b8565b9150509250925092565b5f5ffd5b5f5ffd5b5f5ffd5b5f5f83601f84011261133d5761133c61131c565b5b8235905067ffffffffffffffff81111561135a57611359611320565b5b60208301915083600182028301111561137657611375611324565b5b9250929050565b5f5f5f5f5f6080868803121561139657611395610ff7565b5b5f6113a3888289016110f8565b95505060206113b48882890161121c565b945050604086013567ffffffffffffffff8111156113d5576113d4610ffb565b5b6113e188828901611328565b935093505060606113f4888289016112b8565b9150509295509295909350565b5f6040820190508181035f830152611419818561116f565b9050818103602083015261142d818461116f565b90509392505050565b7f4e487b71000000000000000000000000000000000000000000000000000000005f52602260045260245ffd5b5f600282049050600182168061147a57607f821691505b60208210810361148d5761148c611436565b5b50919050565b7f4e6f207375636820726f6c6500000000000000000000000000000000000000005f82015250565b5f6114c7600c83611141565b91506114d282611493565b602082019050919050565b5f6020820190508181035f8301526114f4816114bb565b9050919050565b61150481611299565b82525050565b5f60408201905061151d5f8301856111b0565b61152a60208301846114fb565b9392505050565b7f496e76616c6964206163636f756e7400000000000000000000000000000000005f82015250565b5f611565600f83611141565b915061157082611531565b602082019050919050565b5f6020820190508181035f83015261159281611559565b9050919050565b7f496e76616c696420726f6c6500000000000000000000000000000000000000005f82015250565b5f6115cd600c83611141565b91506115d882611599565b602082019050919050565b5f6020820190508181035f8301526115fa816115c1565b9050919050565b7f4e487b71000000000000000000000000000000000000000000000000000000005f52604160045260245ffd5b5f819050815f5260205f209050919050565b5f6020601f8301049050919050565b5f82821b905092915050565b5f6008830261168a7fffffffffffffffffffffffffffffffffffffffffffffffffffffffffffffffff8261164f565b611694868361164f565b95508019841693508086168417925050509392505050565b5f819050919050565b5f6116cf6116ca6116c584611299565b6116ac565b611299565b9050919050565b5f819050919050565b6116e8836116b5565b6116fc6116f4826116d6565b84845461165b565b825550505050565b5f5f905090565b611713611704565b61171e8184846116df565b505050565b5b81811015611741576117365f8261170b565b600181019050611724565b5050565b601f821115611786576117578161162e565b61176084611640565b8101602085101561176f578190505b61178361177b85611640565b830182611723565b50505b505050565b5f82821c905092915050565b5f6117a65f198460080261178b565b1980831691505092915050565b5f6117be8383611797565b9150826002028217905092915050565b6117d782611137565b67ffffffffffffffff8111156117f0576117ef611601565b5b6117fa8254611463565b611805828285611745565b5f60209050601f831160018114611836575f8415611824578287015190505b61182e85826117b3565b865550611895565b601f1984166118448661162e565b5f5b8281101561186b57848901518255600182019150602085019450602081019050611846565b868310156118885784890151611884601f891682611797565b8355505b6001600288020188555050505b505050505050565b7f5061727469636970616e74206e6f7420657869737400000000000000000000005f82015250565b5f6118d1601583611141565b91506118dc8261189d565b602082019050919050565b5f6020820190508181035f8301526118fe816118c5565b9050919050565b61190e816110d1565b82525050565b5f6040820190506119275f830185611905565b61193460208301846111b0565b939250505056fea2646970667358221220008ec059c73f86e282025969ccf4e0194dff02f18c7762c0408e18392b073ff264736f6c634300081c0033",
  "linkReferences": {},
  "deployedLinkReferences": {},
  "immutableReferences": {},
  "inputSourceName": "project/contracts/RoleManager.sol",
  "buildInfoId": "solc-0_8_28-a65b4baa604d2bde5176c989985ca6296f548d3d"
}