{
  "_format": "hh3-artifact-1",
  "contractName": "SupplyChain",
  "sourceName": "contracts/SupplyChain.sol",
  "abi": [
    {
      "inputs": [
        {
          "internalType": "address",
          "name": "_roleManager",
          "type": "address"
        }
      ],
      "stateMutability": "nonpayable",
      "type": "constructor"
    },
    {
      "anonymous": false,
      "inputs": [
        {
          "indexed": true,
          "internalType": "uint256",
          "name": "id",
          "type": "uint256"
        },
        {
          "indexed": false,
          "internalType": "address",
          "name": "owner",
          "type": "address"
        },
        {
          "indexed": false,
          "internalType": "uint256",
          "name": "timestamp",
          "type": "uint256"
        }
      ],
      "name": "InitProduct",
      "type": "event"
    },
    {
      "anonymous": false,
      "inputs": [
        {
          "indexed": true,
          "internalType": "uint256",
          "name": "id",
          "type": "uint256"
        },
        {
          "indexed": false,
          "internalType": "enum SupplyChain.ProductState",
          "name": "newState",
          "type": "uint8"
        },
        {
          "indexed": false,
          "internalType": "address",
          "name": "from",
          "type": "address"
        },
        {
          "indexed": false,
          "internalType": "address",
          "name": "to",
          "type": "address"
        },
        {
          "indexed": false,
          "internalType": "uint256",
          "name": "timestamp",
          "type": "uint256"
        }
      ],
      "name": "UpdateProductState",
      "type": "event"
    },
    {
      "inputs": [
        {
          "internalType": "string",
          "name": "_code",
          "type": "string"
        }
      ],
      "name": "getIdFromCode",
      "outputs": [
        {
          "internalType": "uint256",
          "name": "",
          "type": "uint256"
        }
      ],
      "stateMutability": "view",
      "type": "function"
    },
    {
      "inputs": [
        {
          "internalType": "uint256",
          "name": "_id",
          "type": "uint256"
        }
      ],
      "name": "getProductInfo",
      "outputs": [
        {
          "internalType": "string",
          "name": "code",
          "type": "string"
        },
        {
          "internalType": "string",
          "name": "name",
          "type": "string"
        },
        {
          "internalType": "address",
          "name": "currentOwner",
          "type": "address"
        },
        {
          "internalType": "enum SupplyChain.ProductState",
          "name": "state",
          "type": "uint8"
        },
        {
          "internalType": "string",
          "name": "ipfsHash",
          "type": "string"
        },
        {
          "internalType": "uint256",
          "name": "timestamp",
          "type": "uint256"
        }
      ],
      "stateMutability": "view",
      "type": "function"
    },
    {
      "inputs": [
        {
          "internalType": "string",
          "name": "_code",
          "type": "string"
        },
        {
          "internalType": "string",
          "name": "_name",
          "type": "string"
        },
        {
          "internalType": "string",
          "name": "_ipfsHash",
          "type": "string"
        },
        {
          "internalType": "uint256",
          "name": "_timestamp",
          "type": "uint256"
        }
      ],
      "name": "initProduct",
      "outputs": [],
      "stateMutability": "nonpayable",
      "type": "function"
    },
    {
      "inputs": [
        {
          "internalType": "uint256",
          "name": "_id",
          "type": "uint256"
        },
        {
          "internalType": "uint256",
          "name": "_timestamp",
          "type": "uint256"
        }
      ],
      "name": "packageProduct",
      "outputs": [],
      "stateMutability": "nonpayable",
      "type": "function"
    },
    {
      "inputs": [
        {
          "internalType": "uint256",
          "name": "_id",
          "type": "uint256"
        },
        {
          "internalType": "uint256",
          "name": "_timestamp",
          "type": "uint256"
        }
      ],
      "name": "passQC",
      "outputs": [],
      "stateMutability": "nonpayable",
      "type": "function"
    },
    {
      "inputs": [],
      "name": "productCount",
      "outputs": [
        {
          "internalType": "uint256",
          "name": "",
          "type": "uint256"
        }
      ],
      "stateMutability": "view",
      "type": "function"
    },
    {
      "inputs": [
        {
          "internalType": "string",
          "name": "",
          "type": "string"
        }
      ],
      "name": "productIdByCode",
      "outputs": [
        {
          "internalType": "uint256",
          "name": "",
          "type": "uint256"
        }
      ],
      "stateMutability": "view",
      "type": "function"
    },
    {
      "inputs": [
        {
          "internalType": "uint256",
          "name": "",
          "type": "uint256"
        }
      ],
      "name": "products",
      "outputs": [
        {
          "internalType": "uint256",
          "name": "id",
          "type": "uint256"
        },
        {
          "internalType": "string",
          "name": "code",
          "type": "string"
        },
        {
          "internalType": "string",
          "name": "name",
          "type": "string"
        },
        {
          "internalType": "address",
          "name": "currentOwner",
          "type": "address"
        },
        {
          "internalType": "string",
          "name": "ipfsHash",
          "type": "string"
        },
        {
          "internalType": "enum SupplyChain.ProductState",
          "name": "state",
          "type": "uint8"
        },
        {
          "internalType": "uint256",
          "name": "timestamp",
          "type": "uint256"
        }
      ],
      "stateMutability": "view",
      "type": "function"
    },
    {
      "inputs": [],
      "name": "roleManager",
      "outputs": [
        {
          "internalType": "contract RoleManager",
          "name": "",
          "type": "address"
        }
      ],
      "stateMutability": "view",
      "type": "function"
    },
    {
      "inputs": [
        {
          "internalType": "uint256",
          "name": "_id",
          "type": "uint256"
        },
        {
          "internalType": "uint256",
          "name": "_timestamp",
          "type": "uint256"
        }
      ],
      "name": "sellToConsumer",
      "outputs": [],
      "stateMutability": "nonpayable",
      "type": "function"
    },
    {
      "inputs": [
        {
          "internalType": "uint256",
          "name": "_id",
          "type": "uint256"
        },
        {
          "internalType": "address",
          "name": "_distributor",
          "type": "address"
        },
        {
          "internalType": "uint256",
          "name": "_timestamp",
          "type": "uint256"
        }
      ],
      "name": "transferToDistributor",
      "outputs": [],
      "stateMutability": "nonpayable",
      "type": "function"
    },
    {
      "inputs": [
        {
          "internalType": "uint256",
          "name": "_id",
          "type": "uint256"
        },
        {
          "internalType": "address",
          "name": "_retailer",
          "type": "address"
        },
        {
          "internalType": "uint256",
          "name": "_timestamp",
          "type": "uint256"
        }
      ],
      "name": "transferToRetailer",
      "outputs": [],
      "stateMutability": "nonpayable",
      "type": "function"
    }
  ],
  "bytecode": "0x608060405234801561000f575f5ffd5b50604051612e97380380612e97833981810160405281019061003191906100d4565b805f5f6101000a81548173ffffffffffffffffffffffffffffffffffffffff021916908373ffffffffffffffffffffffffffffffffffffffff160217905550506100ff565b5f5ffd5b5f73ffffffffffffffffffffffffffffffffffffffff82169050919050565b5f6100a38261007a565b9050919050565b6100b381610099565b81146100bd575f5ffd5b50565b5f815190506100ce816100aa565b92915050565b5f602082840312156100e9576100e8610076565b5b5f6100f6848285016100c0565b91505092915050565b612d8b8061010c5f395ff3fe608060405234801561000f575f5ffd5b50600436106100b1575f3560e01c8063744a71c21161006f578063744a71c21461017357806379a85e6c1461018f5780637acc0b20146101c45780638f15d65b146101fa5780639581bad01461022a578063e0f6ef8714610246576100b1565b8062435da5146100b557806319c9c30c146100d3578063241ee707146100ef57806337953f2f1461011f57806354f988401461013b57806373903c9114610157575b5f5ffd5b6100bd610264565b6040516100ca9190611eaa565b60405180910390f35b6100ed60048036038101906100e89190611f07565b610288565b005b61010960048036038101906101049190612081565b610573565b60405161011691906120d7565b60405180910390f35b6101396004803603810190610134919061212b565b6105a0565b005b610155600480360381019061015091906121d8565b6109b5565b005b610171600480360381019061016c9190611f07565b610dfd565b005b61018d60048036038101906101889190611f07565b6110e8565b005b6101a960048036038101906101a4919061229c565b6114ad565b6040516101bb969594939291906123a9565b60405180910390f35b6101de60048036038101906101d9919061229c565b6117ac565b6040516101f1979695949392919061241d565b60405180910390f35b610214600480360381019061020f9190612081565b6119a7565b60405161022191906120d7565b60405180910390f35b610244600480360381019061023f919061212b565b611a15565b005b61024e611e2a565b60405161025b91906120d7565b60405180910390f35b5f5f9054906101000a900473ffffffffffffffffffffffffffffffffffffffff1681565b81600254811115801561029a57505f81115b6102d9576040517f08c379a00000000000000000000000000000000000000000000000000000000081526004016102d0906124e9565b60405180910390fd5b823373ffffffffffffffffffffffffffffffffffffffff1660015f8381526020019081526020015f206003015f9054906101000a900473ffffffffffffffffffffffffffffffffffffffff1673ffffffffffffffffffffffffffffffffffffffff161461037b576040517f08c379a000000000000000000000000000000000000000000000000000000000815260040161037290612551565b60405180910390fd5b5f5f9054906101000a900473ffffffffffffffffffffffffffffffffffffffff1673ffffffffffffffffffffffffffffffffffffffff166317d4a491336040518263ffffffff1660e01b81526004016103d4919061256f565b602060405180830381865afa1580156103ef573d5f5f3e3d5ffd5b505050506040513d601f19601f8201168201806040525081019061041391906125bd565b610452576040517f08c379a000000000000000000000000000000000000000000000000000000000815260040161044990612632565b60405180910390fd5b6001600681111561046657610465612336565b5b60015f8681526020019081526020015f206005015f9054906101000a900460ff16600681111561049957610498612336565b5b146104d9576040517f08c379a00000000000000000000000000000000000000000000000000000000081526004016104d09061269a565b60405180910390fd5b600260015f8681526020019081526020015f206005015f6101000a81548160ff021916908360068111156105105761050f612336565b5b02179055508260015f8681526020019081526020015f2060060181905550837f632918cfa146de502f8460b3865b1731891168311a4a0ddb0189d9a24944c43a600233338760405161056594939291906126b8565b60405180910390a250505050565b6003818051602081018201805184825260208301602085012081835280955050505050505f915090505481565b8260025481111580156105b257505f81115b6105f1576040517f08c379a00000000000000000000000000000000000000000000000000000000081526004016105e8906124e9565b60405180910390fd5b833373ffffffffffffffffffffffffffffffffffffffff1660015f8381526020019081526020015f206003015f9054906101000a900473ffffffffffffffffffffffffffffffffffffffff1673ffffffffffffffffffffffffffffffffffffffff1614610693576040517f08c379a000000000000000000000000000000000000000000000000000000000815260040161068a90612551565b60405180910390fd5b5f5f9054906101000a900473ffffffffffffffffffffffffffffffffffffffff1673ffffffffffffffffffffffffffffffffffffffff16638f0c86fa336040518263ffffffff1660e01b81526004016106ec919061256f565b602060405180830381865afa158015610707573d5f5f3e3d5ffd5b505050506040513d601f19601f8201168201806040525081019061072b91906125bd565b61076a576040517f08c379a000000000000000000000000000000000000000000000000000000000815260040161076190612745565b60405180910390fd5b5f5f9054906101000a900473ffffffffffffffffffffffffffffffffffffffff1673ffffffffffffffffffffffffffffffffffffffff16635da09b88856040518263ffffffff1660e01b81526004016107c3919061256f565b602060405180830381865afa1580156107de573d5f5f3e3d5ffd5b505050506040513d601f19601f8201168201806040525081019061080291906125bd565b610841576040517f08c379a0000000000000000000000000000000000000000000000000000000008152600401610838906127ad565b60405180910390fd5b6004600681111561085557610854612336565b5b60015f8781526020019081526020015f206005015f9054906101000a900460ff16600681111561088857610887612336565b5b146108c8576040517f08c379a00000000000000000000000000000000000000000000000000000000081526004016108bf9061269a565b60405180910390fd5b8360015f8781526020019081526020015f206003015f6101000a81548173ffffffffffffffffffffffffffffffffffffffff021916908373ffffffffffffffffffffffffffffffffffffffff160217905550600560015f8781526020019081526020015f206005015f6101000a81548160ff0219169083600681111561095157610950612336565b5b02179055508260015f8781526020019081526020015f2060060181905550847f632918cfa146de502f8460b3865b1731891168311a4a0ddb0189d9a24944c43a60053387876040516109a694939291906126b8565b60405180910390a25050505050565b5f5f9054906101000a900473ffffffffffffffffffffffffffffffffffffffff1673ffffffffffffffffffffffffffffffffffffffff166317d4a491336040518263ffffffff1660e01b8152600401610a0e919061256f565b602060405180830381865afa158015610a29573d5f5f3e3d5ffd5b505050506040513d601f19601f82011682018060405250810190610a4d91906125bd565b610a8c576040517f08c379a0000000000000000000000000000000000000000000000000000000008152600401610a8390612632565b60405180910390fd5b5f8787905011610ad1576040517f08c379a0000000000000000000000000000000000000000000000000000000008152600401610ac890612815565b60405180910390fd5b5f60038888604051610ae4929190612861565b90815260200160405180910390205414610b33576040517f08c379a0000000000000000000000000000000000000000000000000000000008152600401610b2a906128c3565b60405180910390fd5b60025f815480929190610b459061290e565b91905055506040518060e00160405280600254815260200188888080601f0160208091040260200160405190810160405280939291908181526020018383808284375f81840152601f19601f82011690508083019250505050505050815260200186868080601f0160208091040260200160405190810160405280939291908181526020018383808284375f81840152601f19601f8201169050808301925050505050505081526020013373ffffffffffffffffffffffffffffffffffffffff16815260200184848080601f0160208091040260200160405190810160405280939291908181526020018383808284375f81840152601f19601f82011690508083019250505050505050815260200160016006811115610c6857610c67612336565b5b81526020018281525060015f60025481526020019081526020015f205f820151815f01556020820151816001019081610ca19190612b49565b506040820151816002019081610cb79190612b49565b506060820151816003015f6101000a81548173ffffffffffffffffffffffffffffffffffffffff021916908373ffffffffffffffffffffffffffffffffffffffff1602179055506080820151816004019081610d139190612b49565b5060a0820151816005015f6101000a81548160ff02191690836006811115610d3e57610d3d612336565b5b021790555060c0820151816006015590505060025460038888604051610d65929190612861565b9081526020016040518091039020819055506002547f9fed70a3d6a5758e0bd36e2fb0e955d60478308d88d319e216b8d774fa1966f03383604051610dab929190612c18565b60405180910390a26002547f632918cfa146de502f8460b3865b1731891168311a4a0ddb0189d9a24944c43a6001333385604051610dec94939291906126b8565b60405180910390a250505050505050565b816002548111158015610e0f57505f81115b610e4e576040517f08c379a0000000000000000000000000000000000000000000000000000000008152600401610e45906124e9565b60405180910390fd5b823373ffffffffffffffffffffffffffffffffffffffff1660015f8381526020019081526020015f206003015f9054906101000a900473ffffffffffffffffffffffffffffffffffffffff1673ffffffffffffffffffffffffffffffffffffffff1614610ef0576040517f08c379a0000000000000000000000000000000000000000000000000000000008152600401610ee790612551565b60405180910390fd5b5f5f9054906101000a900473ffffffffffffffffffffffffffffffffffffffff1673ffffffffffffffffffffffffffffffffffffffff166317d4a491336040518263ffffffff1660e01b8152600401610f49919061256f565b602060405180830381865afa158015610f64573d5f5f3e3d5ffd5b505050506040513d601f19601f82011682018060405250810190610f8891906125bd565b610fc7576040517f08c379a0000000000000000000000000000000000000000000000000000000008152600401610fbe90612632565b60405180910390fd5b60026006811115610fdb57610fda612336565b5b60015f8681526020019081526020015f206005015f9054906101000a900460ff16600681111561100e5761100d612336565b5b1461104e576040517f08c379a00000000000000000000000000000000000000000000000000000000081526004016110459061269a565b60405180910390fd5b600360015f8681526020019081526020015f206005015f6101000a81548160ff0219169083600681111561108557611084612336565b5b02179055508260015f8681526020019081526020015f2060060181905550837f632918cfa146de502f8460b3865b1731891168311a4a0ddb0189d9a24944c43a60033333876040516110da94939291906126b8565b60405180910390a250505050565b8160025481111580156110fa57505f81115b611139576040517f08c379a0000000000000000000000000000000000000000000000000000000008152600401611130906124e9565b60405180910390fd5b823373ffffffffffffffffffffffffffffffffffffffff1660015f8381526020019081526020015f206003015f9054906101000a900473ffffffffffffffffffffffffffffffffffffffff1673ffffffffffffffffffffffffffffffffffffffff16146111db576040517f08c379a00000000000000000000000000000000000000000000000000000000081526004016111d290612551565b60405180910390fd5b5f5f9054906101000a900473ffffffffffffffffffffffffffffffffffffffff1673ffffffffffffffffffffffffffffffffffffffff16635da09b88336040518263ffffffff1660e01b8152600401611234919061256f565b602060405180830381865afa15801561124f573d5f5f3e3d5ffd5b505050506040513d601f19601f8201168201806040525081019061127391906125bd565b6112b2576040517f08c379a00000000000000000000000000000000000000000000000000000000081526004016112a9906127ad565b60405180910390fd5b836006808111156112c6576112c5612336565b5b60015f8381526020019081526020015f206005015f9054906101000a900460ff1660068111156112f9576112f8612336565b5b03611339576040517f08c379a000000000000000000000000000000000000000000000000000000000815260040161133090612c89565b60405180910390fd5b6005600681111561134d5761134c612336565b5b60015f8781526020019081526020015f206005015f9054906101000a900460ff1660068111156113805761137f612336565b5b146113c0576040517f08c379a00000000000000000000000000000000000000000000000000000000081526004016113b79061269a565b60405180910390fd5b5f60015f8781526020019081526020015f206003015f6101000a81548173ffffffffffffffffffffffffffffffffffffffff021916908373ffffffffffffffffffffffffffffffffffffffff160217905550600660015f8781526020019081526020015f206005015f6101000a81548160ff0219169083600681111561144957611448612336565b5b02179055508360015f8781526020019081526020015f2060060181905550847f632918cfa146de502f8460b3865b1731891168311a4a0ddb0189d9a24944c43a6006335f8860405161149e94939291906126b8565b60405180910390a25050505050565b6060805f5f60605f8660025481111580156114c757505f81115b611506576040517f08c379a00000000000000000000000000000000000000000000000000000000081526004016114fd906124e9565b60405180910390fd5b5f60015f8a81526020019081526020015f206040518060e00160405290815f820154815260200160018201805461153c90612982565b80601f016020809104026020016040519081016040528092919081815260200182805461156890612982565b80156115b35780601f1061158a576101008083540402835291602001916115b3565b820191905f5260205f20905b81548152906001019060200180831161159657829003601f168201915b505050505081526020016002820180546115cc90612982565b80601f01602080910402602001604051908101604052809291908181526020018280546115f890612982565b80156116435780601f1061161a57610100808354040283529160200191611643565b820191905f5260205f20905b81548152906001019060200180831161162657829003601f168201915b50505050508152602001600382015f9054906101000a900473ffffffffffffffffffffffffffffffffffffffff1673ffffffffffffffffffffffffffffffffffffffff1673ffffffffffffffffffffffffffffffffffffffff1681526020016004820180546116b190612982565b80601f01602080910402602001604051908101604052809291908181526020018280546116dd90612982565b80156117285780601f106116ff57610100808354040283529160200191611728565b820191905f5260205f20905b81548152906001019060200180831161170b57829003601f168201915b50505050508152602001600582015f9054906101000a900460ff16600681111561175557611754612336565b5b600681111561176757611766612336565b5b815260200160068201548152505090508060200151816040015182606001518360a0015184608001518560c00151975097509750975097509750505091939550919395565b6001602052805f5260405f205f91509050805f0154908060010180546117d190612982565b80601f01602080910402602001604051908101604052809291908181526020018280546117fd90612982565b80156118485780601f1061181f57610100808354040283529160200191611848565b820191905f5260205f20905b81548152906001019060200180831161182b57829003601f168201915b50505050509080600201805461185d90612982565b80601f016020809104026020016040519081016040528092919081815260200182805461188990612982565b80156118d45780601f106118ab576101008083540402835291602001916118d4565b820191905f5260205f20905b8154815290600101906020018083116118b757829003601f168201915b505050505090806003015f9054906101000a900473ffffffffffffffffffffffffffffffffffffffff169080600401805461190e90612982565b80601f016020809104026020016040519081016040528092919081815260200182805461193a90612982565b80156119855780601f1061195c57610100808354040283529160200191611985565b820191905f5260205f20905b81548152906001019060200180831161196857829003601f168201915b505050505090806005015f9054906101000a900460ff16908060060154905087565b5f5f6003836040516119b99190612cd7565b90815260200160405180910390205490505f8111611a0c576040517f08c379a0000000000000000000000000000000000000000000000000000000008152600401611a0390612d37565b60405180910390fd5b80915050919050565b826002548111158015611a2757505f81115b611a66576040517f08c379a0000000000000000000000000000000000000000000000000000000008152600401611a5d906124e9565b60405180910390fd5b833373ffffffffffffffffffffffffffffffffffffffff1660015f8381526020019081526020015f206003015f9054906101000a900473ffffffffffffffffffffffffffffffffffffffff1673ffffffffffffffffffffffffffffffffffffffff1614611b08576040517f08c379a0000000000000000000000000000000000000000000000000000000008152600401611aff90612551565b60405180910390fd5b5f5f9054906101000a900473ffffffffffffffffffffffffffffffffffffffff1673ffffffffffffffffffffffffffffffffffffffff166317d4a491336040518263ffffffff1660e01b8152600401611b61919061256f565b602060405180830381865afa158015611b7c573d5f5f3e3d5ffd5b505050506040513d601f19601f82011682018060405250810190611ba091906125bd565b611bdf576040517f08c379a0000000000000000000000000000000000000000000000000000000008152600401611bd690612632565b60405180910390fd5b5f5f9054906101000a900473ffffffffffffffffffffffffffffffffffffffff1673ffffffffffffffffffffffffffffffffffffffff16638f0c86fa856040518263ffffffff1660e01b8152600401611c38919061256f565b602060405180830381865afa158015611c53573d5f5f3e3d5ffd5b505050506040513d601f19601f82011682018060405250810190611c7791906125bd565b611cb6576040517f08c379a0000000000000000000000000000000000000000000000000000000008152600401611cad90612745565b60405180910390fd5b60036006811115611cca57611cc9612336565b5b60015f8781526020019081526020015f206005015f9054906101000a900460ff166006811115611cfd57611cfc612336565b5b14611d3d576040517f08c379a0000000000000000000000000000000000000000000000000000000008152600401611d349061269a565b60405180910390fd5b8360015f8781526020019081526020015f206003015f6101000a81548173ffffffffffffffffffffffffffffffffffffffff021916908373ffffffffffffffffffffffffffffffffffffffff160217905550600460015f8781526020019081526020015f206005015f6101000a81548160ff02191690836006811115611dc657611dc5612336565b5b02179055508260015f8781526020019081526020015f2060060181905550847f632918cfa146de502f8460b3865b1731891168311a4a0ddb0189d9a24944c43a6004338787604051611e1b94939291906126b8565b60405180910390a25050505050565b60025481565b5f73ffffffffffffffffffffffffffffffffffffffff82169050919050565b5f819050919050565b5f611e72611e6d611e6884611e30565b611e4f565b611e30565b9050919050565b5f611e8382611e58565b9050919050565b5f611e9482611e79565b9050919050565b611ea481611e8a565b82525050565b5f602082019050611ebd5f830184611e9b565b92915050565b5f604051905090565b5f5ffd5b5f5ffd5b5f819050919050565b611ee681611ed4565b8114611ef0575f5ffd5b50565b5f81359050611f0181611edd565b92915050565b5f5f60408385031215611f1d57611f1c611ecc565b5b5f611f2a85828601611ef3565b9250506020611f3b85828601611ef3565b9150509250929050565b5f5ffd5b5f5ffd5b5f601f19601f8301169050919050565b7f4e487b71000000000000000000000000000000000000000000000000000000005f52604160045260245ffd5b611f9382611f4d565b810181811067ffffffffffffffff82111715611fb257611fb1611f5d565b5b80604052505050565b5f611fc4611ec3565b9050611fd08282611f8a565b919050565b5f67ffffffffffffffff821115611fef57611fee611f5d565b5b611ff882611f4d565b9050602081019050919050565b828183375f83830152505050565b5f61202561202084611fd5565b611fbb565b90508281526020810184848401111561204157612040611f49565b5b61204c848285612005565b509392505050565b5f82601f83011261206857612067611f45565b5b8135612078848260208601612013565b91505092915050565b5f6020828403121561209657612095611ecc565b5b5f82013567ffffffffffffffff8111156120b3576120b2611ed0565b5b6120bf84828501612054565b91505092915050565b6120d181611ed4565b82525050565b5f6020820190506120ea5f8301846120c8565b92915050565b5f6120fa82611e30565b9050919050565b61210a816120f0565b8114612114575f5ffd5b50565b5f8135905061212581612101565b92915050565b5f5f5f6060848603121561214257612141611ecc565b5b5f61214f86828701611ef3565b935050602061216086828701612117565b925050604061217186828701611ef3565b9150509250925092565b5f5ffd5b5f5ffd5b5f5f83601f84011261219857612197611f45565b5b8235905067ffffffffffffffff8111156121b5576121b461217b565b5b6020830191508360018202830111156121d1576121d061217f565b5b9250929050565b5f5f5f5f5f5f5f6080888a0312156121f3576121f2611ecc565b5b5f88013567ffffffffffffffff8111156122105761220f611ed0565b5b61221c8a828b01612183565b9750975050602088013567ffffffffffffffff81111561223f5761223e611ed0565b5b61224b8a828b01612183565b9550955050604088013567ffffffffffffffff81111561226e5761226d611ed0565b5b61227a8a828b01612183565b9350935050606061228d8a828b01611ef3565b91505092959891949750929550565b5f602082840312156122b1576122b0611ecc565b5b5f6122be84828501611ef3565b91505092915050565b5f81519050919050565b5f82825260208201905092915050565b8281835e5f83830152505050565b5f6122f9826122c7565b61230381856122d1565b93506123138185602086016122e1565b61231c81611f4d565b840191505092915050565b612330816120f0565b82525050565b7f4e487b71000000000000000000000000000000000000000000000000000000005f52602160045260245ffd5b6007811061237457612373612336565b5b50565b5f81905061238482612363565b919050565b5f61239382612377565b9050919050565b6123a381612389565b82525050565b5f60c0820190508181035f8301526123c181896122ef565b905081810360208301526123d581886122ef565b90506123e46040830187612327565b6123f1606083018661239a565b818103608083015261240381856122ef565b905061241260a08301846120c8565b979650505050505050565b5f60e0820190506124305f83018a6120c8565b818103602083015261244281896122ef565b9050818103604083015261245681886122ef565b90506124656060830187612327565b818103608083015261247781866122ef565b905061248660a083018561239a565b61249360c08301846120c8565b98975050505050505050565b7f50726f6475637420646f6573206e6f74206578697374000000000000000000005f82015250565b5f6124d36016836122d1565b91506124de8261249f565b602082019050919050565b5f6020820190508181035f830152612500816124c7565b9050919050565b7f4e6f74206f776e657200000000000000000000000000000000000000000000005f82015250565b5f61253b6009836122d1565b915061254682612507565b602082019050919050565b5f6020820190508181035f8301526125688161252f565b9050919050565b5f6020820190506125825f830184612327565b92915050565b5f8115159050919050565b61259c81612588565b81146125a6575f5ffd5b50565b5f815190506125b781612593565b92915050565b5f602082840312156125d2576125d1611ecc565b5b5f6125df848285016125a9565b91505092915050565b7f4e6f74206d616e756661637475726572000000000000000000000000000000005f82015250565b5f61261c6010836122d1565b9150612627826125e8565b602082019050919050565b5f6020820190508181035f83015261264981612610565b9050919050565b7f496e76616c6964207374617465000000000000000000000000000000000000005f82015250565b5f612684600d836122d1565b915061268f82612650565b602082019050919050565b5f6020820190508181035f8301526126b181612678565b9050919050565b5f6080820190506126cb5f83018761239a565b6126d86020830186612327565b6126e56040830185612327565b6126f260608301846120c8565b95945050505050565b7f4e6f74206469737472696275746f7200000000000000000000000000000000005f82015250565b5f61272f600f836122d1565b915061273a826126fb565b602082019050919050565b5f6020820190508181035f83015261275c81612723565b9050919050565b7f4e6f742072657461696c657200000000000000000000000000000000000000005f82015250565b5f612797600c836122d1565b91506127a282612763565b602082019050919050565b5f6020820190508181035f8301526127c48161278b565b9050919050565b7f436f646520656d707479000000000000000000000000000000000000000000005f82015250565b5f6127ff600a836122d1565b915061280a826127cb565b602082019050919050565b5f6020820190508181035f83015261282c816127f3565b9050919050565b5f81905092915050565b5f6128488385612833565b9350612855838584612005565b82840190509392505050565b5f61286d82848661283d565b91508190509392505050565b7f436f6465206578697374656400000000000000000000000000000000000000005f82015250565b5f6128ad600c836122d1565b91506128b882612879565b602082019050919050565b5f6020820190508181035f8301526128da816128a1565b9050919050565b7f4e487b71000000000000000000000000000000000000000000000000000000005f52601160045260245ffd5b5f61291882611ed4565b91507fffffffffffffffffffffffffffffffffffffffffffffffffffffffffffffffff820361294a576129496128e1565b5b600182019050919050565b7f4e487b71000000000000000000000000000000000000000000000000000000005f52602260045260245ffd5b5f600282049050600182168061299957607f821691505b6020821081036129ac576129ab612955565b5b50919050565b5f819050815f5260205f209050919050565b5f6020601f8301049050919050565b5f82821b905092915050565b5f60088302612a0e7fffffffffffffffffffffffffffffffffffffffffffffffffffffffffffffffff826129d3565b612a1886836129d3565b95508019841693508086168417925050509392505050565b5f612a4a612a45612a4084611ed4565b611e4f565b611ed4565b9050919050565b5f819050919050565b612a6383612a30565b612a77612a6f82612a51565b8484546129df565b825550505050565b5f5f905090565b612a8e612a7f565b612a99818484612a5a565b505050565b5b81811015612abc57612ab15f82612a86565b600181019050612a9f565b5050565b601f821115612b0157612ad2816129b2565b612adb846129c4565b81016020851015612aea578190505b612afe612af6856129c4565b830182612a9e565b50505b505050565b5f82821c905092915050565b5f612b215f1984600802612b06565b1980831691505092915050565b5f612b398383612b12565b9150826002028217905092915050565b612b52826122c7565b67ffffffffffffffff811115612b6b57612b6a611f5d565b5b612b758254612982565b612b80828285612ac0565b5f60209050601f831160018114612bb1575f8415612b9f578287015190505b612ba98582612b2e565b865550612c10565b601f198416612bbf866129b2565b5f5b82811015612be657848901518255600182019150602085019450602081019050612bc1565b86831015612c035784890151612bff601f891682612b12565b8355505b6001600288020188555050505b505050505050565b5f604082019050612c2b5f830185612327565b612c3860208301846120c8565b9392505050565b7f416c726561647920736f6c6400000000000000000000000000000000000000005f82015250565b5f612c73600c836122d1565b9150612c7e82612c3f565b602082019050919050565b5f6020820190508181035f830152612ca081612c67565b9050919050565b5f612cb1826122c7565b612cbb8185612833565b9350612ccb8185602086016122e1565b80840191505092915050565b5f612ce28284612ca7565b915081905092915050565b7f4e6f7420657869737400000000000000000000000000000000000000000000005f82015250565b5f612d216009836122d1565b9150612d2c82612ced565b602082019050919050565b5f6020820190508181035f830152612d4e81612d15565b905091905056fea26469706673582212200bdc67550d04ad6dbfe643b04c4ebed23592e921ab3ce15962038b678557579964736f6c634300081c0033",
  "linkReferences": {},
  "deployedLinkReferences": {},
  "immutableReferences": {},
  "inputSourceName": "project/contracts/SupplyChain.sol",
  "buildInfoId": "solc-0_8_28-a65b4baa604d2bde5176c989985ca6296f548d3d"
}