{
  "_format": "hh3-artifact-1",
  "contractName": "SupplyChain",
  "sourceName": "contracts/SupplyChain.sol",
  "abi": [
    {
      "inputs": [
        {
          "internalType": "address",
          "name": "_roleManager",
          "type": "address"
        }
      ],
      "stateMutability": "nonpayable",
      "type": "constructor"
    },
    {
      "anonymous": false,
      "inputs": [
        {
          "indexed": true,
          "internalType": "uint256",
          "name": "id",
          "type": "uint256"
        },
        {
          "indexed": false,
          "internalType": "address",
          "name": "owner",
          "type": "address"
        },
        {
          "indexed": false,
          "internalType": "uint256",
          "name": "timestamp",
          "type": "uint256"
        }
      ],
      "name": "InitProduct",
      "type": "event"
    },
    {
      "anonymous": false,
      "inputs": [
        {
          "indexed": true,
          "internalType": "uint256",
          "name": "id",
          "type": "uint256"
        },
        {
          "indexed": false,
          "internalType": "enum SupplyChain.ProductState",
          "name": "newState",
          "type": "uint8"
        },
        {
          "indexed": false,
          "internalType": "address",
          "name": "from",
          "type": "address"
        },
        {
          "indexed": false,
          "internalType": "address",
          "name": "to",
          "type": "address"
        },
        {
          "indexed": false,
          "internalType": "uint256",
          "name": "timestamp",
          "type": "uint256"
        }
      ],
      "name": "UpdateProductState",
      "type": "event"
    },
    {
      "inputs": [
        {
          "internalType": "string",
          "name": "_code",
          "type": "string"
        }
      ],
      "name": "getIdFromCode",
      "outputs": [
        {
          "internalType": "uint256",
          "name": "",
          "type": "uint256"
        }
      ],
      "stateMutability": "view",
      "type": "function"
    },
    {
      "inputs": [
        {
          "internalType": "uint256",
          "name": "_id",
          "type": "uint256"
        }
      ],
      "name": "getProductInfo",
      "outputs": [
        {
          "internalType": "string",
          "name": "code",
          "type": "string"
        },
        {
          "internalType": "string",
          "name": "name",
          "type": "string"
        },
        {
          "internalType": "address",
          "name": "currentOwner",
          "type": "address"
        },
        {
          "internalType": "enum SupplyChain.ProductState",
          "name": "state",
          "type": "uint8"
        },
        {
          "internalType": "string",
          "name": "ipfsHash",
          "type": "string"
        },
        {
          "internalType": "uint256",
          "name": "timestamp",
          "type": "uint256"
        }
      ],
      "stateMutability": "view",
      "type": "function"
    },
    {
      "inputs": [
        {
          "internalType": "string",
          "name": "_code",
          "type": "string"
        },
        {
          "internalType": "string",
          "name": "_name",
          "type": "string"
        },
        {
          "internalType": "string",
          "name": "_ipfsHash",
          "type": "string"
        },
        {
          "internalType": "uint256",
          "name": "_timestamp",
          "type": "uint256"
        }
      ],
      "name": "initProduct",
      "outputs": [],
      "stateMutability": "nonpayable",
      "type": "function"
    },
    {
      "inputs": [
        {
          "internalType": "uint256",
          "name": "_id",
          "type": "uint256"
        },
        {
          "internalType": "uint256",
          "name": "_timestamp",
          "type": "uint256"
        }
      ],
      "name": "packageProduct",
      "outputs": [],
      "stateMutability": "nonpayable",
      "type": "function"
    },
    {
      "inputs": [
        {
          "internalType": "uint256",
          "name": "_id",
          "type": "uint256"
        },
        {
          "internalType": "uint256",
          "name": "_timestamp",
          "type": "uint256"
        }
      ],
      "name": "passQC",
      "outputs": [],
      "stateMutability": "nonpayable",
      "type": "function"
    },
    {
      "inputs": [],
      "name": "productCount",
      "outputs": [
        {
          "internalType": "uint256",
          "name": "",
          "type": "uint256"
        }
      ],
      "stateMutability": "view",
      "type": "function"
    },
    {
      "inputs": [
        {
          "internalType": "string",
          "name": "",
          "type": "string"
        }
      ],
      "name": "productIdByCode",
      "outputs": [
        {
          "internalType": "uint256",
          "name": "",
          "type": "uint256"
        }
      ],
      "stateMutability": "view",
      "type": "function"
    },
    {
      "inputs": [
        {
          "internalType": "uint256",
          "name": "",
          "type": "uint256"
        }
      ],
      "name": "products",
      "outputs": [
        {
          "internalType": "uint256",
          "name": "id",
          "type": "uint256"
        },
        {
          "internalType": "string",
          "name": "code",
          "type": "string"
        },
        {
          "internalType": "string",
          "name": "name",
          "type": "string"
        },
        {
          "internalType": "address",
          "name": "currentOwner",
          "type": "address"
        },
        {
          "internalType": "string",
          "name": "ipfsHash",
          "type": "string"
        },
        {
          "internalType": "enum SupplyChain.ProductState",
          "name": "state",
          "type": "uint8"
        },
        {
          "internalType": "uint256",
          "name": "timestamp",
          "type": "uint256"
        }
      ],
      "stateMutability": "view",
      "type": "function"
    },
    {
      "inputs": [],
      "name": "roleManager",
      "outputs": [
        {
          "internalType": "contract RoleManager",
          "name": "",
          "type": "address"
        }
      ],
      "stateMutability": "view",
      "type": "function"
    },
    {
      "inputs": [
        {
          "internalType": "uint256",
          "name": "_id",
          "type": "uint256"
        },
        {
          "internalType": "uint256",
          "name": "_timestamp",
          "type": "uint256"
        }
      ],
      "name": "sellToConsumer",
      "outputs": [],
      "stateMutability": "nonpayable",
      "type": "function"
    },
    {
      "inputs": [
        {
          "internalType": "uint256",
          "name": "_id",
          "type": "uint256"
        },
        {
          "internalType": "address",
          "name": "_distributor",
          "type": "address"
        },
        {
          "internalType": "uint256",
          "name": "_timestamp",
          "type": "uint256"
        }
      ],
      "name": "transferToDistributor",
      "outputs": [],
      "stateMutability": "nonpayable",
      "type": "function"
    },
    {
      "inputs": [
        {
          "internalType": "uint256",
          "name": "_id",
          "type": "uint256"
        },
        {
          "internalType": "address",
          "name": "_retailer",
          "type": "address"
        },
        {
          "internalType": "uint256",
          "name": "_timestamp",
          "type": "uint256"
        }
      ],
      "name": "transferToRetailer",
      "outputs": [],
      "stateMutability": "nonpayable",
      "type": "function"
    }
  ],
  "bytecode": "0x6080604052348015600e575f5ffd5b50604051611aa7380380611aa7833981016040819052602b91604e565b5f80546001600160a01b0319166001600160a01b03929092169190911790556079565b5f60208284031215605d575f5ffd5b81516001600160a01b03811681146072575f5ffd5b9392505050565b611a21806100865f395ff3fe608060405234801561000f575f5ffd5b50600436106100b0575f3560e01c8063744a71c21161006e578063744a71c21461016a57806379a85e6c1461017d5780637acc0b20146101a25780638f15d65b146101c85780639581bad0146101db578063e0f6ef87146101ee575f5ffd5b8062435da5146100b457806319c9c30c146100e3578063241ee707146100f857806337953f2f1461013157806354f988401461014457806373903c9114610157575b5f5ffd5b5f546100c6906001600160a01b031681565b6040516001600160a01b0390911681526020015b60405180910390f35b6100f66100f13660046113e1565b6101f7565b005b610123610106366004611415565b805160208183018101805160038252928201919093012091525481565b6040519081526020016100da565b6100f661013f3660046114c8565b61038b565b6100f661015236600461154d565b6105f9565b6100f66101653660046113e1565b610941565b6100f66101783660046113e1565b610abe565b61019061018b3660046115f4565b610ccc565b6040516100da9695949392919061166d565b6101b56101b03660046115f4565b610f5b565b6040516100da97969594939291906116d5565b6101236101d6366004611415565b611139565b6100f66101e93660046114c8565b61119d565b61012360025481565b81600254811115801561020957505f81115b61022e5760405162461bcd60e51b815260040161022590611744565b60405180910390fd5b5f8381526001602052604090206003015483906001600160a01b031633146102685760405162461bcd60e51b815260040161022590611774565b5f546040516317d4a49160e01b81523360048201526001600160a01b03909116906317d4a49190602401602060405180830381865afa1580156102ad573d5f5f3e3d5ffd5b505050506040513d601f19601f820116820180604052508101906102d19190611797565b6102ed5760405162461bcd60e51b8152600401610225906117bd565b60015f8581526001602052604090206005015460ff16600681111561031457610314611639565b146103315760405162461bcd60e51b8152600401610225906117e7565b5f848152600160205260409081902060058101805460ff191660029081179091556006909101859055905185915f5160206119cc5f395f51905f529161037d919033908190899061180e565b60405180910390a250505050565b82600254811115801561039d57505f81115b6103b95760405162461bcd60e51b815260040161022590611744565b5f8481526001602052604090206003015484906001600160a01b031633146103f35760405162461bcd60e51b815260040161022590611774565b5f54604051634786437d60e11b81523360048201526001600160a01b0390911690638f0c86fa90602401602060405180830381865afa158015610438573d5f5f3e3d5ffd5b505050506040513d601f19601f8201168201806040525081019061045c9190611797565b61049a5760405162461bcd60e51b815260206004820152600f60248201526e2737ba103234b9ba3934b13aba37b960891b6044820152606401610225565b5f54604051630bb4137160e31b81526001600160a01b03868116600483015290911690635da09b8890602401602060405180830381865afa1580156104e1573d5f5f3e3d5ffd5b505050506040513d601f19601f820116820180604052508101906105059190611797565b6105405760405162461bcd60e51b815260206004820152600c60248201526b2737ba103932ba30b4b632b960a11b6044820152606401610225565b60045f8681526001602052604090206005015460ff16600681111561056757610567611639565b146105845760405162461bcd60e51b8152600401610225906117e7565b5f85815260016020526040908190206003810180546001600160a01b0319166001600160a01b0388161790556005808201805460ff1916821790556006909101859055905186915f5160206119cc5f395f51905f52916105ea919033908990899061180e565b60405180910390a25050505050565b5f546040516317d4a49160e01b81523360048201526001600160a01b03909116906317d4a49190602401602060405180830381865afa15801561063e573d5f5f3e3d5ffd5b505050506040513d601f19601f820116820180604052508101906106629190611797565b61067e5760405162461bcd60e51b8152600401610225906117bd565b856106b85760405162461bcd60e51b815260206004820152600a602482015269436f646520656d70747960b01b6044820152606401610225565b600387876040516106ca929190611843565b9081526020016040518091039020545f146107165760405162461bcd60e51b815260206004820152600c60248201526b10dbd91948195e1a5cdd195960a21b6044820152606401610225565b60028054905f61072583611852565b91905055506040518060e00160405280600254815260200188888080601f0160208091040260200160405190810160405280939291908181526020018383808284375f92019190915250505090825250604080516020601f8901819004810282018101909252878152918101919088908890819084018382808284375f920191909152505050908252503360208083019190915260408051601f870183900483028101830182528681529201919086908690819084018382808284375f92018290525093855250506001602080850182905260409485018790526002548452818152939092208451815592840151918301916108229150826118fa565b506040820151600282019061083790826118fa565b5060608201516003820180546001600160a01b0319166001600160a01b039092169190911790556080820151600482019061087290826118fa565b5060a082015160058201805460ff1916600183600681111561089657610896611639565b021790555060c08201518160060155905050600254600388886040516108bd929190611843565b908152604080519182900360209081018320939093556002543383529282018490527f9fed70a3d6a5758e0bd36e2fb0e955d60478308d88d319e216b8d774fa1966f0910160405180910390a26002545f5160206119cc5f395f51905f526001333385604051610930949392919061180e565b60405180910390a250505050505050565b81600254811115801561095357505f81115b61096f5760405162461bcd60e51b815260040161022590611744565b5f8381526001602052604090206003015483906001600160a01b031633146109a95760405162461bcd60e51b815260040161022590611774565b5f546040516317d4a49160e01b81523360048201526001600160a01b03909116906317d4a49190602401602060405180830381865afa1580156109ee573d5f5f3e3d5ffd5b505050506040513d601f19601f82011682018060405250810190610a129190611797565b610a2e5760405162461bcd60e51b8152600401610225906117bd565b60025f8581526001602052604090206005015460ff166006811115610a5557610a55611639565b14610a725760405162461bcd60e51b8152600401610225906117e7565b5f848152600160205260409081902060058101805460ff191660039081179091556006909101859055905185915f5160206119cc5f395f51905f529161037d919033908190899061180e565b816002548111158015610ad057505f81115b610aec5760405162461bcd60e51b815260040161022590611744565b5f8381526001602052604090206003015483906001600160a01b03163314610b265760405162461bcd60e51b815260040161022590611774565b5f54604051630bb4137160e31b81523360048201526001600160a01b0390911690635da09b8890602401602060405180830381865afa158015610b6b573d5f5f3e3d5ffd5b505050506040513d601f19601f82011682018060405250810190610b8f9190611797565b610bca5760405162461bcd60e51b815260206004820152600c60248201526b2737ba103932ba30b4b632b960a11b6044820152606401610225565b8360065f8281526001602052604090206005015460ff166006811115610bf257610bf2611639565b03610c2e5760405162461bcd60e51b815260206004820152600c60248201526b105b1c9958591e481cdbdb1960a21b6044820152606401610225565b60055f8681526001602052604090206005015460ff166006811115610c5557610c55611639565b14610c725760405162461bcd60e51b8152600401610225906117e7565b5f858152600160205260408082206003810180546001600160a01b031916905560058101805460ff19166006908117909155908101879055905187925f5160206119cc5f395f51905f52926105ea92909133918a9061180e565b6060805f5f60605f866002548111158015610ce657505f81115b610d025760405162461bcd60e51b815260040161022590611744565b5f888152600160208181526040808420815160e08101909252805482529283018054919392840191610d3390611876565b80601f0160208091040260200160405190810160405280929190818152602001828054610d5f90611876565b8015610daa5780601f10610d8157610100808354040283529160200191610daa565b820191905f5260205f20905b815481529060010190602001808311610d8d57829003601f168201915b50505050508152602001600282018054610dc390611876565b80601f0160208091040260200160405190810160405280929190818152602001828054610def90611876565b8015610e3a5780601f10610e1157610100808354040283529160200191610e3a565b820191905f5260205f20905b815481529060010190602001808311610e1d57829003601f168201915b505050918352505060038201546001600160a01b03166020820152600482018054604090920191610e6a90611876565b80601f0160208091040260200160405190810160405280929190818152602001828054610e9690611876565b8015610ee15780601f10610eb857610100808354040283529160200191610ee1565b820191905f5260205f20905b815481529060010190602001808311610ec457829003601f168201915b5050509183525050600582015460209091019060ff166006811115610f0857610f08611639565b6006811115610f1957610f19611639565b8152600691909101546020918201528101516040820151606083015160a0840151608085015160c090950151939e929d50909b50995091975095509350505050565b600160208190525f918252604090912080549181018054610f7b90611876565b80601f0160208091040260200160405190810160405280929190818152602001828054610fa790611876565b8015610ff25780601f10610fc957610100808354040283529160200191610ff2565b820191905f5260205f20905b815481529060010190602001808311610fd557829003601f168201915b50505050509080600201805461100790611876565b80601f016020809104026020016040519081016040528092919081815260200182805461103390611876565b801561107e5780601f106110555761010080835404028352916020019161107e565b820191905f5260205f20905b81548152906001019060200180831161106157829003601f168201915b505050600384015460048501805494956001600160a01b039092169491935091506110a890611876565b80601f01602080910402602001604051908101604052809291908181526020018280546110d490611876565b801561111f5780601f106110f65761010080835404028352916020019161111f565b820191905f5260205f20905b81548152906001019060200180831161110257829003601f168201915b505050506005830154600690930154919260ff1691905087565b5f5f60038360405161114b91906119b5565b90815260200160405180910390205490505f81116111975760405162461bcd60e51b8152602060048201526009602482015268139bdd08195e1a5cdd60ba1b6044820152606401610225565b92915050565b8260025481111580156111af57505f81115b6111cb5760405162461bcd60e51b815260040161022590611744565b5f8481526001602052604090206003015484906001600160a01b031633146112055760405162461bcd60e51b815260040161022590611774565b5f546040516317d4a49160e01b81523360048201526001600160a01b03909116906317d4a49190602401602060405180830381865afa15801561124a573d5f5f3e3d5ffd5b505050506040513d601f19601f8201168201806040525081019061126e9190611797565b61128a5760405162461bcd60e51b8152600401610225906117bd565b5f54604051634786437d60e11b81526001600160a01b03868116600483015290911690638f0c86fa90602401602060405180830381865afa1580156112d1573d5f5f3e3d5ffd5b505050506040513d601f19601f820116820180604052508101906112f59190611797565b6113335760405162461bcd60e51b815260206004820152600f60248201526e2737ba103234b9ba3934b13aba37b960891b6044820152606401610225565b60035f8681526001602052604090206005015460ff16600681111561135a5761135a611639565b146113775760405162461bcd60e51b8152600401610225906117e7565b5f85815260016020526040908190206003810180546001600160a01b0319166001600160a01b038816179055600581018054600460ff1990911681179091556006909101859055905186915f5160206119cc5f395f51905f52916105ea919033908990899061180e565b5f5f604083850312156113f2575f5ffd5b50508035926020909101359150565b634e487b7160e01b5f52604160045260245ffd5b5f60208284031215611425575f5ffd5b813567ffffffffffffffff81111561143b575f5ffd5b8201601f8101841361144b575f5ffd5b803567ffffffffffffffff81111561146557611465611401565b604051601f8201601f19908116603f0116810167ffffffffffffffff8111828210171561149457611494611401565b6040528181528282016020018610156114ab575f5ffd5b816020840160208301375f91810160200191909152949350505050565b5f5f5f606084860312156114da575f5ffd5b8335925060208401356001600160a01b03811681146114f7575f5ffd5b929592945050506040919091013590565b5f5f83601f840112611518575f5ffd5b50813567ffffffffffffffff81111561152f575f5ffd5b602083019150836020828501011115611546575f5ffd5b9250929050565b5f5f5f5f5f5f5f6080888a031215611563575f5ffd5b873567ffffffffffffffff811115611579575f5ffd5b6115858a828b01611508565b909850965050602088013567ffffffffffffffff8111156115a4575f5ffd5b6115b08a828b01611508565b909650945050604088013567ffffffffffffffff8111156115cf575f5ffd5b6115db8a828b01611508565b989b979a50959894979596606090950135949350505050565b5f60208284031215611604575f5ffd5b5035919050565b5f81518084528060208401602086015e5f602082860101526020601f19601f83011685010191505092915050565b634e487b7160e01b5f52602160045260245ffd5b6007811061166957634e487b7160e01b5f52602160045260245ffd5b9052565b60c081525f61167f60c083018961160b565b8281036020840152611691818961160b565b6001600160a01b038816604085015290506116af606084018761164d565b82810360808401526116c1818661160b565b9150508260a0830152979650505050505050565b87815260e060208201525f6116ed60e083018961160b565b82810360408401526116ff818961160b565b6001600160a01b038816606085015283810360808501529050611722818761160b565b91505061173260a083018561164d565b8260c083015298975050505050505050565b602080825260169082015275141c9bd91d58dd08191bd95cc81b9bdd08195e1a5cdd60521b604082015260600190565b6020808252600990820152682737ba1037bbb732b960b91b604082015260600190565b5f602082840312156117a7575f5ffd5b815180151581146117b6575f5ffd5b9392505050565b60208082526010908201526f2737ba1036b0b73ab330b1ba3ab932b960811b604082015260600190565b6020808252600d908201526c496e76616c696420737461746560981b604082015260600190565b6080810161181c828761164d565b6001600160a01b039485166020830152929093166040840152606090920191909152919050565b818382375f9101908152919050565b5f6001820161186f57634e487b7160e01b5f52601160045260245ffd5b5060010190565b600181811c9082168061188a57607f821691505b6020821081036118a857634e487b7160e01b5f52602260045260245ffd5b50919050565b601f8211156118f557805f5260205f20601f840160051c810160208510156118d35750805b601f840160051c820191505b818110156118f2575f81556001016118df565b50505b505050565b815167ffffffffffffffff81111561191457611914611401565b611928816119228454611876565b846118ae565b6020601f82116001811461195a575f83156119435750848201515b5f19600385901b1c1916600184901b1784556118f2565b5f84815260208120601f198516915b828110156119895787850151825560209485019460019092019101611969565b50848210156119a657868401515f19600387901b60f8161c191681555b50505050600190811b01905550565b5f82518060208501845e5f92019182525091905056fe632918cfa146de502f8460b3865b1731891168311a4a0ddb0189d9a24944c43aa2646970667358221220d07ca611da8ed36b363fef53775ddea934fc8214e07957386f2af2fb7285a78564736f6c634300081c0033",
  "linkReferences": {},
  "deployedLinkReferences": {},
  "immutableReferences": {},
  "inputSourceName": "project/contracts/SupplyChain.sol",
  "buildInfoId": "solc-0_8_28-82a240043a4ff5de1085c08dd6854e74605ac03b"
}