{
  "_format": "hh3-artifact-1",
  "contractName": "RoleManager",
  "sourceName": "contracts/RoleManager.sol",
  "abi": [
    {
      "inputs": [],
      "stateMutability": "nonpayable",
      "type": "constructor"
    },
    {
      "inputs": [],
      "name": "AccessControlBadConfirmation",
      "type": "error"
    },
    {
      "inputs": [
        {
          "internalType": "address",
          "name": "account",
          "type": "address"
        },
        {
          "internalType": "bytes32",
          "name": "neededRole",
          "type": "bytes32"
        }
      ],
      "name": "AccessControlUnauthorizedAccount",
      "type": "error"
    },
    {
      "anonymous": false,
      "inputs": [
        {
          "indexed": true,
          "internalType": "address",
          "name": "account",
          "type": "address"
        },
        {
          "indexed": false,
          "internalType": "bytes32",
          "name": "role",
          "type": "bytes32"
        },
        {
          "indexed": false,
          "internalType": "uint256",
          "name": "timestamp",
          "type": "uint256"
        }
      ],
      "name": "AddParticipant",
      "type": "event"
    },
    {
      "anonymous": false,
      "inputs": [
        {
          "indexed": true,
          "internalType": "address",
          "name": "account",
          "type": "address"
        },
        {
          "indexed": false,
          "internalType": "bytes32",
          "name": "role",
          "type": "bytes32"
        },
        {
          "indexed": false,
          "internalType": "uint256",
          "name": "timestamp",
          "type": "uint256"
        }
      ],
      "name": "RemoveParticipant",
      "type": "event"
    },
    {
      "anonymous": false,
      "inputs": [
        {
          "indexed": true,
          "internalType": "bytes32",
          "name": "role",
          "type": "bytes32"
        },
        {
          "indexed": true,
          "internalType": "bytes32",
          "name": "previousAdminRole",
          "type": "bytes32"
        },
        {
          "indexed": true,
          "internalType": "bytes32",
          "name": "newAdminRole",
          "type": "bytes32"
        }
      ],
      "name": "RoleAdminChanged",
      "type": "event"
    },
    {
      "anonymous": false,
      "inputs": [
        {
          "indexed": true,
          "internalType": "bytes32",
          "name": "role",
          "type": "bytes32"
        },
        {
          "indexed": true,
          "internalType": "address",
          "name": "account",
          "type": "address"
        },
        {
          "indexed": true,
          "internalType": "address",
          "name": "sender",
          "type": "address"
        }
      ],
      "name": "RoleGranted",
      "type": "event"
    },
    {
      "anonymous": false,
      "inputs": [
        {
          "indexed": true,
          "internalType": "bytes32",
          "name": "role",
          "type": "bytes32"
        },
        {
          "indexed": true,
          "internalType": "address",
          "name": "account",
          "type": "address"
        },
        {
          "indexed": true,
          "internalType": "address",
          "name": "sender",
          "type": "address"
        }
      ],
      "name": "RoleRevoked",
      "type": "event"
    },
    {
      "inputs": [],
      "name": "DEFAULT_ADMIN_ROLE",
      "outputs": [
        {
          "internalType": "bytes32",
          "name": "",
          "type": "bytes32"
        }
      ],
      "stateMutability": "view",
      "type": "function"
    },
    {
      "inputs": [],
      "name": "DISTRIBUTOR_ROLE",
      "outputs": [
        {
          "internalType": "bytes32",
          "name": "",
          "type": "bytes32"
        }
      ],
      "stateMutability": "view",
      "type": "function"
    },
    {
      "inputs": [],
      "name": "MANUFACTURER_ROLE",
      "outputs": [
        {
          "internalType": "bytes32",
          "name": "",
          "type": "bytes32"
        }
      ],
      "stateMutability": "view",
      "type": "function"
    },
    {
      "inputs": [],
      "name": "RETAILER_ROLE",
      "outputs": [
        {
          "internalType": "bytes32",
          "name": "",
          "type": "bytes32"
        }
      ],
      "stateMutability": "view",
      "type": "function"
    },
    {
      "inputs": [
        {
          "internalType": "address",
          "name": "_account",
          "type": "address"
        },
        {
          "internalType": "bytes32",
          "name": "_role",
          "type": "bytes32"
        },
        {
          "internalType": "string",
          "name": "_name",
          "type": "string"
        },
        {
          "internalType": "uint256",
          "name": "_timestamp",
          "type": "uint256"
        }
      ],
      "name": "addParticipant",
      "outputs": [],
      "stateMutability": "nonpayable",
      "type": "function"
    },
    {
      "inputs": [
        {
          "internalType": "address",
          "name": "_account",
          "type": "address"
        }
      ],
      "name": "getParticipant",
      "outputs": [
        {
          "internalType": "string",
          "name": "name",
          "type": "string"
        },
        {
          "internalType": "string",
          "name": "roleStr",
          "type": "string"
        }
      ],
      "stateMutability": "view",
      "type": "function"
    },
    {
      "inputs": [
        {
          "internalType": "bytes32",
          "name": "role",
          "type": "bytes32"
        }
      ],
      "name": "getRoleAdmin",
      "outputs": [
        {
          "internalType": "bytes32",
          "name": "",
          "type": "bytes32"
        }
      ],
      "stateMutability": "view",
      "type": "function"
    },
    {
      "inputs": [
        {
          "internalType": "bytes32",
          "name": "role",
          "type": "bytes32"
        },
        {
          "internalType": "address",
          "name": "account",
          "type": "address"
        }
      ],
      "name": "grantRole",
      "outputs": [],
      "stateMutability": "nonpayable",
      "type": "function"
    },
    {
      "inputs": [
        {
          "internalType": "bytes32",
          "name": "role",
          "type": "bytes32"
        },
        {
          "internalType": "address",
          "name": "account",
          "type": "address"
        }
      ],
      "name": "hasRole",
      "outputs": [
        {
          "internalType": "bool",
          "name": "",
          "type": "bool"
        }
      ],
      "stateMutability": "view",
      "type": "function"
    },
    {
      "inputs": [
        {
          "internalType": "address",
          "name": "_account",
          "type": "address"
        }
      ],
      "name": "isDistributor",
      "outputs": [
        {
          "internalType": "bool",
          "name": "",
          "type": "bool"
        }
      ],
      "stateMutability": "view",
      "type": "function"
    },
    {
      "inputs": [
        {
          "internalType": "address",
          "name": "_account",
          "type": "address"
        }
      ],
      "name": "isManufacturer",
      "outputs": [
        {
          "internalType": "bool",
          "name": "",
          "type": "bool"
        }
      ],
      "stateMutability": "view",
      "type": "function"
    },
    {
      "inputs": [
        {
          "internalType": "address",
          "name": "_account",
          "type": "address"
        }
      ],
      "name": "isRetailer",
      "outputs": [
        {
          "internalType": "bool",
          "name": "",
          "type": "bool"
        }
      ],
      "stateMutability": "view",
      "type": "function"
    },
    {
      "inputs": [
        {
          "internalType": "address",
          "name": "",
          "type": "address"
        }
      ],
      "name": "participants",
      "outputs": [
        {
          "internalType": "string",
          "name": "name",
          "type": "string"
        },
        {
          "internalType": "bytes32",
          "name": "role",
          "type": "bytes32"
        }
      ],
      "stateMutability": "view",
      "type": "function"
    },
    {
      "inputs": [
        {
          "internalType": "address",
          "name": "_account",
          "type": "address"
        },
        {
          "internalType": "bytes32",
          "name": "_role",
          "type": "bytes32"
        },
        {
          "internalType": "uint256",
          "name": "_timestamp",
          "type": "uint256"
        }
      ],
      "name": "removeParticipant",
      "outputs": [],
      "stateMutability": "nonpayable",
      "type": "function"
    },
    {
      "inputs": [
        {
          "internalType": "bytes32",
          "name": "role",
          "type": "bytes32"
        },
        {
          "internalType": "address",
          "name": "callerConfirmation",
          "type": "address"
        }
      ],
      "name": "renounceRole",
      "outputs": [],
      "stateMutability": "nonpayable",
      "type": "function"
    },
    {
      "inputs": [
        {
          "internalType": "bytes32",
          "name": "role",
          "type": "bytes32"
        },
        {
          "internalType": "address",
          "name": "account",
          "type": "address"
        }
      ],
      "name": "revokeRole",
      "outputs": [],
      "stateMutability": "nonpayable",
      "type": "function"
    },
    {
      "inputs": [
        {
          "internalType": "bytes4",
          "name": "interfaceId",
          "type": "bytes4"
        }
      ],
      "name": "supportsInterface",
      "outputs": [
        {
          "internalType": "bool",
          "name": "",
          "type": "bool"
        }
      ],
      "stateMutability": "view",
      "type": "function"
    }
  ],
  "bytecode": "0x608060405234801561000f575f5ffd5b5061001a5f33610072565b506040805160808101825260058183019081526420b236b4b760d91b606083015281525f602080830182905233825260019052919091208151819061005f90826101b3565b506020820151816001015590505061026d565b5f828152602081815260408083206001600160a01b038516845290915281205460ff16610112575f838152602081815260408083206001600160a01b03861684529091529020805460ff191660011790556100ca3390565b6001600160a01b0316826001600160a01b0316847f2f8788117e7eff1d82e926ec794901d17c78024a50270940304540a733656f0d60405160405180910390a4506001610115565b505f5b92915050565b634e487b7160e01b5f52604160045260245ffd5b600181811c9082168061014357607f821691505b60208210810361016157634e487b7160e01b5f52602260045260245ffd5b50919050565b601f8211156101ae57805f5260205f20601f840160051c8101602085101561018c5750805b601f840160051c820191505b818110156101ab575f8155600101610198565b50505b505050565b81516001600160401b038111156101cc576101cc61011b565b6101e0816101da845461012f565b84610167565b6020601f821160018114610212575f83156101fb5750848201515b5f19600385901b1c1916600184901b1784556101ab565b5f84815260208120601f198516915b828110156102415787850151825560209485019460019092019101610221565b508482101561025e57868401515f19600387901b60f8161c191681555b50505050600190811b01905550565b610e1b8061027a5f395ff3fe608060405234801561000f575f5ffd5b5060043610610106575f3560e01c806350db76a51161009e57806391d148541161006e57806391d148541461023f578063965288b014610252578063a217fddf14610266578063d547741f1461026d578063f0bd87cc14610280575f5ffd5b806350db76a5146101e55780635da09b88146101f85780637143059f1461020b5780638f0c86fa1461022c575f5ffd5b8063248a9ca3116100d9578063248a9ca3146101885780632f2ff15d146101aa5780633510c0a2146101bf57806336568abe146101d2575f5ffd5b806301ffc9a71461010a57806309e69ede1461013257806317d4a491146101535780632115e7bf14610166575b5f5ffd5b61011d610118366004610a5a565b610294565b60405190151581526020015b60405180910390f35b610145610140366004610aa3565b6102ca565b604051610129929190610aea565b61011d610161366004610aa3565b61036b565b61017a5f516020610dc65f395f51905f5281565b604051908152602001610129565b61017a610196366004610b0b565b5f9081526020819052604090206001015490565b6101bd6101b8366004610b22565b610383565b005b6101bd6101cd366004610b4c565b6103ad565b6101bd6101e0366004610b22565b610481565b6101bd6101f3366004610b7c565b6104b9565b61011d610206366004610aa3565b61064e565b61021e610219366004610aa3565b610666565b604051610129929190610c06565b61011d61023a366004610aa3565b61086e565b61011d61024d366004610b22565b610882565b61017a5f516020610d865f395f51905f5281565b61017a5f81565b6101bd61027b366004610b22565b6108aa565b61017a5f516020610da65f395f51905f5281565b5f6001600160e01b03198216637965db0b60e01b14806102c457506301ffc9a760e01b6001600160e01b03198316145b92915050565b60016020525f90815260409020805481906102e490610c33565b80601f016020809104026020016040519081016040528092919081815260200182805461031090610c33565b801561035b5780601f106103325761010080835404028352916020019161035b565b820191905f5260205f20905b81548152906001019060200180831161033e57829003601f168201915b5050505050908060010154905082565b5f6102c45f516020610d865f395f51905f5283610882565b5f8281526020819052604090206001015461039d816108ce565b6103a783836108db565b50505050565b5f6103b7816108ce565b6103c18385610882565b6104015760405162461bcd60e51b815260206004820152600c60248201526b4e6f207375636820726f6c6560a01b60448201526064015b60405180910390fd5b61040b838561096a565b506001600160a01b0384165f9081526001602052604081209061042e8282610a10565b505f6001919091015560408051848152602081018490526001600160a01b038616917fb8dad4d1bfe2a40ca36b2772126949a3d81917172beff009f033a602e06e1554910160405180910390a250505050565b6001600160a01b03811633146104aa5760405163334bd91960e11b815260040160405180910390fd5b6104b4828261096a565b505050565b5f6104c3816108ce565b6001600160a01b03861661050b5760405162461bcd60e51b815260206004820152600f60248201526e125b9d985b1a59081858d8dbdd5b9d608a1b60448201526064016103f8565b5f516020610d865f395f51905f5285148061053257505f516020610da65f395f51905f5285145b8061054957505f516020610dc65f395f51905f5285145b6105845760405162461bcd60e51b815260206004820152600c60248201526b496e76616c696420726f6c6560a01b60448201526064016103f8565b61058e85876108db565b506040805160606020601f870181900402820181018352918101858152909182919087908790819085018382808284375f92018290525093855250505060209182018890526001600160a01b0389168152600190915260409020815181906105f69082610cca565b50602091820151600190910155604080518781529182018490526001600160a01b038816917f0b4161aeba0f9ce3ae6746c39559526eb91878fd1dcf2de2fbd5b616046e659f910160405180910390a2505050505050565b5f6102c45f516020610dc65f395f51905f5283610882565b6060805f60015f856001600160a01b03166001600160a01b031681526020019081526020015f206040518060400160405290815f820180546106a790610c33565b80601f01602080910402602001604051908101604052809291908181526020018280546106d390610c33565b801561071e5780601f106106f55761010080835404028352916020019161071e565b820191905f5260205f20905b81548152906001019060200180831161070157829003601f168201915b5050505050815260200160018201548152505090505f815f0151511161077e5760405162461bcd60e51b815260206004820152601560248201527414185c9d1a58da5c185b9d081b9bdd08195e1a5cdd605a1b60448201526064016103f8565b5f516020610d865f395f51905f528160200151036107c2576040518060400160405280600c81526020016b26b0b73ab330b1ba3ab932b960a11b8152509150610865565b5f516020610da65f395f51905f52816020015103610805576040518060400160405280600b81526020016a2234b9ba3934b13aba37b960a91b8152509150610865565b5f516020610dc65f395f51905f5281602001510361084557604051806040016040528060088152602001672932ba30b4b632b960c11b8152509150610865565b604051806040016040528060048152602001634e6f6e6560e01b81525091505b51939092509050565b5f6102c45f516020610da65f395f51905f52835b5f918252602082815260408084206001600160a01b0393909316845291905290205460ff1690565b5f828152602081905260409020600101546108c4816108ce565b6103a7838361096a565b6108d881336109d3565b50565b5f6108e68383610882565b610963575f838152602081815260408083206001600160a01b03861684529091529020805460ff1916600117905561091b3390565b6001600160a01b0316826001600160a01b0316847f2f8788117e7eff1d82e926ec794901d17c78024a50270940304540a733656f0d60405160405180910390a45060016102c4565b505f6102c4565b5f6109758383610882565b15610963575f838152602081815260408083206001600160a01b0386168085529252808320805460ff1916905551339286917ff6391f5c32d9c69d2a47ea670b442974b53935d1edc7fd64eb21e047a839171b9190a45060016102c4565b6109dd8282610882565b610a0c5760405163e2517d3f60e01b81526001600160a01b0382166004820152602481018390526044016103f8565b5050565b508054610a1c90610c33565b5f825580601f10610a2b575050565b601f0160209004905f5260205f20908101906108d891905b80821115610a56575f8155600101610a43565b5090565b5f60208284031215610a6a575f5ffd5b81356001600160e01b031981168114610a81575f5ffd5b9392505050565b80356001600160a01b0381168114610a9e575f5ffd5b919050565b5f60208284031215610ab3575f5ffd5b610a8182610a88565b5f81518084528060208401602086015e5f602082860101526020601f19601f83011685010191505092915050565b604081525f610afc6040830185610abc565b90508260208301529392505050565b5f60208284031215610b1b575f5ffd5b5035919050565b5f5f60408385031215610b33575f5ffd5b82359150610b4360208401610a88565b90509250929050565b5f5f5f60608486031215610b5e575f5ffd5b610b6784610a88565b95602085013595506040909401359392505050565b5f5f5f5f5f60808688031215610b90575f5ffd5b610b9986610a88565b945060208601359350604086013567ffffffffffffffff811115610bbb575f5ffd5b8601601f81018813610bcb575f5ffd5b803567ffffffffffffffff811115610be1575f5ffd5b886020828401011115610bf2575f5ffd5b959894975060200195606001359392505050565b604081525f610c186040830185610abc565b8281036020840152610c2a8185610abc565b95945050505050565b600181811c90821680610c4757607f821691505b602082108103610c6557634e487b7160e01b5f52602260045260245ffd5b50919050565b634e487b7160e01b5f52604160045260245ffd5b601f8211156104b457805f5260205f20601f840160051c81016020851015610ca45750805b601f840160051c820191505b81811015610cc3575f8155600101610cb0565b5050505050565b815167ffffffffffffffff811115610ce457610ce4610c6b565b610cf881610cf28454610c33565b84610c7f565b6020601f821160018114610d2a575f8315610d135750848201515b5f19600385901b1c1916600184901b178455610cc3565b5f84815260208120601f198516915b82811015610d595787850151825560209485019460019092019101610d39565b5084821015610d7657868401515f19600387901b60f8161c191681555b50505050600190811b0190555056feeefb95e842a3287179d933b4460be539a1d5af11aa8b325bb45c5c8dc92de4edfbd454f36a7e1a388bd6fc3ab10d434aa4578f811acbbcf33afb1c697486313c2a5f906c256a5d799494fcd066e1f6c077689de1cdb65052a1624de4bace99bfa264697066735822122026458daa48bfdc81f14d9bf439b097aaf984d97b044748decaaeb1edf50bc38764736f6c634300081c0033",
  "linkReferences": {},
  "deployedLinkReferences": {},
  "immutableReferences": {},
  "inputSourceName": "project/contracts/RoleManager.sol",
  "buildInfoId": "solc-0_8_28-bc70de97b8aacf1060dab9559a15559ff636459f"
}